{
  "contractName": "HelloWeb3Together",
  "abi": [
    {
      "inputs": [],
      "name": "ping",
      "outputs": [
        {
          "internalType": "string",
          "name": "",
          "type": "string"
        }
      ],
      "stateMutability": "pure",
      "type": "function"
    },
    {
      "inputs": [],
      "name": "clock",
      "outputs": [
        {
          "internalType": "uint256",
          "name": "",
          "type": "uint256"
        }
      ],
      "stateMutability": "view",
      "type": "function"
    }
  ],
  "bytecode": "0x608060405234801561001057600080fd5b506101ff806100206000396000f3fe608060405234801561001057600080fd5b50600436106100365760003560e01c80635c36b1861461003b57806391ddadf414610059575b600080fd5b610043610077565b6040516100509190610138565b60405180910390f35b610061610097565b60405161006e9190610173565b60405180910390f35b60606040518060600160405280603b815260200161018f603b9139905090565b600042905090565b600081519050919050565b600082825260208201905092915050565b60005b838110156100d95780820151818401526020810190506100be565b838111156100e8576000848401525b50505050565b6000601f19601f8301169050919050565b600061010a8261009f565b61011481856100aa565b93506101248185602086016100bb565b61012d816100ee565b840191505092915050565b6000602082019050818103600083015261015281846100ff565b905092915050565b6000819050919050565b61016d8161015a565b82525050565b60006020820190506101886000830184610164565b9291505056fe57656233546f676574686572202d2068747470733a2f2f6769746875622e636f6d2f77656233746f6765746865722f77656233746f676574686572a264697066735822122091864852436df9be324d00cd98325460d76c3768fbd3cbb091d8e7c6a940b7bc64736f6c63430008090033",
  "immutableReferences": {},
  "source": "// SPDX-License-Identifier: MIT\n\npragma solidity >=0.4.22 <0.9.0;\n\ncontract HelloWeb3Together {\n    function ping() public pure returns (string memory) {\n        return (\"Web3Together - https://github.com/web3together/web3together\");\n    }\n\n    function clock() public view returns (uint) {\n        return block.timestamp;\n    }\n}\n",
  "sourcePath": "/Users/bunhouth/Workspace/web3together-demo/sessions/getting-start/contracts/HelloWeb3Together.sol",
  "compiler": {
    "name": "solc",
    "version": "0.8.9+commit.e5eed63a.Emscripten.clang"
  },
  "schemaVersion": "3.4.3",
  "updatedAt": "2021-12-11T02:54:48.390Z",
  "devdoc": {
    "kind": "dev",
    "methods": {},
    "version": 1
  },
  "userdoc": {
    "kind": "user",
    "methods": {},
    "version": 1
  }
}