{
  "contractName": "Web3Together",
  "abi": [
    {
      "inputs": [
        {
          "internalType": "uint256",
          "name": "_openDate",
          "type": "uint256"
        }
      ],
      "stateMutability": "nonpayable",
      "type": "constructor"
    },
    {
      "anonymous": false,
      "inputs": [
        {
          "indexed": false,
          "internalType": "string",
          "name": "name",
          "type": "string"
        },
        {
          "indexed": false,
          "internalType": "address",
          "name": "public_address",
          "type": "address"
        }
      ],
      "name": "JoinEvent",
      "type": "event"
    },
    {
      "inputs": [],
      "name": "participantsCount",
      "outputs": [
        {
          "internalType": "uint256",
          "name": "",
          "type": "uint256"
        }
      ],
      "stateMutability": "view",
      "type": "function",
      "constant": true
    },
    {
      "inputs": [],
      "name": "name",
      "outputs": [
        {
          "internalType": "string",
          "name": "",
          "type": "string"
        }
      ],
      "stateMutability": "pure",
      "type": "function",
      "constant": true
    },
    {
      "inputs": [
        {
          "internalType": "address",
          "name": "_participant",
          "type": "address"
        }
      ],
      "name": "participant",
      "outputs": [
        {
          "components": [
            {
              "internalType": "uint256",
              "name": "id",
              "type": "uint256"
            },
            {
              "internalType": "string",
              "name": "name",
              "type": "string"
            },
            {
              "internalType": "address",
              "name": "public_address",
              "type": "address"
            },
            {
              "internalType": "uint256",
              "name": "createdAt",
              "type": "uint256"
            }
          ],
          "internalType": "struct Web3Together.Participant",
          "name": "",
          "type": "tuple"
        }
      ],
      "stateMutability": "view",
      "type": "function",
      "constant": true
    },
    {
      "inputs": [
        {
          "internalType": "string",
          "name": "_name",
          "type": "string"
        }
      ],
      "name": "register",
      "outputs": [],
      "stateMutability": "nonpayable",
      "type": "function"
    }
  ],
  "bytecode": "0x608060405234801561001057600080fd5b50604051610d39380380610d398339818101604052810190610032919061007a565b80600081905550506100a7565b600080fd5b6000819050919050565b61005781610044565b811461006257600080fd5b50565b6000815190506100748161004e565b92915050565b6000602082840312156100905761008f61003f565b5b600061009e84828501610065565b91505092915050565b610c83806100b66000396000f3fe608060405234801561001057600080fd5b506004361061004c5760003560e01c806306fdde03146100515780632605b3c71461006f578063dd60c8981461009f578063f2c298be146100bd575b600080fd5b6100596100d9565b6040516100669190610630565b60405180910390f35b610089600480360381019061008491906106c4565b6100f9565b60405161009691906107c6565b60405180910390f35b6100a761024e565b6040516100b491906107f7565b60405180910390f35b6100d760048036038101906100d29190610947565b610254565b005b60606040518060600160405280603b8152602001610c13603b9139905090565b6101016104b6565b600260008373ffffffffffffffffffffffffffffffffffffffff1673ffffffffffffffffffffffffffffffffffffffff16815260200190815260200160002060405180608001604052908160008201548152602001600182018054610165906109bf565b80601f0160208091040260200160405190810160405280929190818152602001828054610191906109bf565b80156101de5780601f106101b3576101008083540402835291602001916101de565b820191906000526020600020905b8154815290600101906020018083116101c157829003601f168201915b505050505081526020016002820160009054906101000a900473ffffffffffffffffffffffffffffffffffffffff1673ffffffffffffffffffffffffffffffffffffffff1673ffffffffffffffffffffffffffffffffffffffff1681526020016003820154815250509050919050565b60015481565b4260005410610298576040517f08c379a000000000000000000000000000000000000000000000000000000000815260040161028f90610a63565b60405180910390fd5b6000600260003373ffffffffffffffffffffffffffffffffffffffff1673ffffffffffffffffffffffffffffffffffffffff16815260200190815260200160002060000154141561031e576040517f08c379a000000000000000000000000000000000000000000000000000000000815260040161031590610acf565b60405180910390fd5b6000815190506000811115610368576040517f08c379a000000000000000000000000000000000000000000000000000000000815260040161035f90610b3b565b60405180910390fd5b6001600081548092919061037b90610b8a565b91905055506000604051806080016040528060015481526020018481526020013373ffffffffffffffffffffffffffffffffffffffff16815260200142815250905080600260003373ffffffffffffffffffffffffffffffffffffffff1673ffffffffffffffffffffffffffffffffffffffff1681526020019081526020016000206000820151816000015560208201518160010190805190602001906104239291906104f4565b5060408201518160020160006101000a81548173ffffffffffffffffffffffffffffffffffffffff021916908373ffffffffffffffffffffffffffffffffffffffff160217905550606082015181600301559050507f04c57dc8e6abe6c8ef31deb06f07a5c673812d0f84d6caa21b965c2a9f28e9f083336040516104a9929190610be2565b60405180910390a1505050565b60405180608001604052806000815260200160608152602001600073ffffffffffffffffffffffffffffffffffffffff168152602001600081525090565b828054610500906109bf565b90600052602060002090601f0160209004810192826105225760008555610569565b82601f1061053b57805160ff1916838001178555610569565b82800160010185558215610569579182015b8281111561056857825182559160200191906001019061054d565b5b509050610576919061057a565b5090565b5b8082111561059357600081600090555060010161057b565b5090565b600081519050919050565b600082825260208201905092915050565b60005b838110156105d15780820151818401526020810190506105b6565b838111156105e0576000848401525b50505050565b6000601f19601f8301169050919050565b600061060282610597565b61060c81856105a2565b935061061c8185602086016105b3565b610625816105e6565b840191505092915050565b6000602082019050818103600083015261064a81846105f7565b905092915050565b6000604051905090565b600080fd5b600080fd5b600073ffffffffffffffffffffffffffffffffffffffff82169050919050565b600061069182610666565b9050919050565b6106a181610686565b81146106ac57600080fd5b50565b6000813590506106be81610698565b92915050565b6000602082840312156106da576106d961065c565b5b60006106e8848285016106af565b91505092915050565b6000819050919050565b610704816106f1565b82525050565b600082825260208201905092915050565b600061072682610597565b610730818561070a565b93506107408185602086016105b3565b610749816105e6565b840191505092915050565b61075d81610686565b82525050565b600060808301600083015161077b60008601826106fb565b5060208301518482036020860152610793828261071b565b91505060408301516107a86040860182610754565b5060608301516107bb60608601826106fb565b508091505092915050565b600060208201905081810360008301526107e08184610763565b905092915050565b6107f1816106f1565b82525050565b600060208201905061080c60008301846107e8565b92915050565b600080fd5b600080fd5b7f4e487b7100000000000000000000000000000000000000000000000000000000600052604160045260246000fd5b610854826105e6565b810181811067ffffffffffffffff821117156108735761087261081c565b5b80604052505050565b6000610886610652565b9050610892828261084b565b919050565b600067ffffffffffffffff8211156108b2576108b161081c565b5b6108bb826105e6565b9050602081019050919050565b82818337600083830152505050565b60006108ea6108e584610897565b61087c565b90508281526020810184848401111561090657610905610817565b5b6109118482856108c8565b509392505050565b600082601f83011261092e5761092d610812565b5b813561093e8482602086016108d7565b91505092915050565b60006020828403121561095d5761095c61065c565b5b600082013567ffffffffffffffff81111561097b5761097a610661565b5b61098784828501610919565b91505092915050565b7f4e487b7100000000000000000000000000000000000000000000000000000000600052602260045260246000fd5b600060028204905060018216806109d757607f821691505b602082108114156109eb576109ea610990565b5b50919050565b7f4576656e7420686176656e2774207374617274207965742e20506c656173652060008201527f636865636b206576656e74206461746500000000000000000000000000000000602082015250565b6000610a4d6030836105a2565b9150610a58826109f1565b604082019050919050565b60006020820190508181036000830152610a7c81610a40565b9050919050565b7f5573657220616c7265616479206a6f696e210000000000000000000000000000600082015250565b6000610ab96012836105a2565b9150610ac482610a83565b602082019050919050565b60006020820190508181036000830152610ae881610aac565b9050919050565b7f506c6561736520656e74657220796f7572206e616d6500000000000000000000600082015250565b6000610b256016836105a2565b9150610b3082610aef565b602082019050919050565b60006020820190508181036000830152610b5481610b18565b9050919050565b7f4e487b7100000000000000000000000000000000000000000000000000000000600052601160045260246000fd5b6000610b95826106f1565b91507fffffffffffffffffffffffffffffffffffffffffffffffffffffffffffffffff821415610bc857610bc7610b5b565b5b600182019050919050565b610bdc81610686565b82525050565b60006040820190508181036000830152610bfc81856105f7565b9050610c0b6020830184610bd3565b939250505056fe57656233546f676574686572202d2068747470733a2f2f6769746875622e636f6d2f77656233746f6765746865722f77656233746f676574686572a264697066735822122039d40a22eb64e8db8703792eb56e143e37303569174cb9f47ac48f3a6d50d23564736f6c63430008090033",
  "immutableReferences": {},
  "source": "// SPDX-License-Identifier: MIT\n\npragma solidity >=0.4.22 <0.9.0;\n\ncontract Web3Together {\n    struct Participant {\n        uint id;\n        string name;\n        address public_address;\n        uint createdAt;\n    }\n\n    uint openDate;\n    uint public participantsCount;\n    mapping(address => Participant) private participants;\n\n    event JoinEvent (\n        string name,\n        address public_address\n    );\n\n    constructor (uint _openDate) {\n        openDate = _openDate;\n    }\n\n    function name() public pure returns (string memory) {\n        return (\"Web3Together - https://github.com/web3together/web3together\");\n    }\n\n    function participant(address _participant) external view returns(Participant memory) {\n        return participants[_participant];\n    }\n\n    function register(string memory _name) public {\n        require(openDate < block.timestamp, \"Event haven't start yet. Please check event date\");\n        require(participants[msg.sender].id != 0, \"User already join!\");\n        uint256 len = bytes(_name).length;\n        require(len <= 0, \"Please enter your name\");\n\n        participantsCount ++;\n        Participant memory item = Participant(\n            participantsCount,\n            _name,\n            msg.sender,\n            block.timestamp\n        );\n        participants[msg.sender] = item;\n\n        emit JoinEvent(_name, msg.sender);\n    }\n}\n",
  "sourcePath": "/Users/bunhouth/Workspace/web3together-demo/session/getting-start/contracts/Web3Together.sol",
  "compiler": {
    "name": "solc",
    "version": "0.8.9+commit.e5eed63a.Emscripten.clang"
  },
  "schemaVersion": "3.4.3",
  "updatedAt": "2021-12-10T15:25:56.189Z",
  "networkType": "ethereum",
  "devdoc": {
    "kind": "dev",
    "methods": {},
    "version": 1
  },
  "userdoc": {
    "kind": "user",
    "methods": {},
    "version": 1
  }
}